:020000040800F2
:1000000000200020251C0008751C0008751C000835
:1000100000000000000000000000000000000000E0
:10002000000000000000000000000000751C000837
:100030000000000000000000751C0008751C00088E
:10004000751C0008751C0008751C0008751C00084C
:10005000751C0008751C0008751C0008751C00083C
:10006000751C0008751C0008751C0008751C00082C
:10007000751C0008751C0008C9180008751C0008CC
:10008000751C0008751C000800000000751C0008A5
:10009000751C0008751C0008751C0008751C0008FC
:1000A000751C0008751C0008751C0008751C0008EC
:1000B000751C000800000000751C0008000000000E
:0400C0005FF808F1EC
:1000C400902310B5DB05984217D0224B98421FD0DD
:1000D400214B984227D0214B98422FD0204B984255
:1000E40000D010BD80200121C00300F081FB8020DE
:1000F4000021C00300F07CFBF3E780200121800293
:1001040000F076FB80200021800200F071FBE8E71C
:1001140080200121C00200F06BFB80200021C0027E
:1001240000F066FBDDE780200121000300F060FBA6
:1001340080200021000300F05BFBD2E78020012136
:10014400400300F055FB80200021400300F050FBE9
:10015400C7E7C0460004004800080048000C0048F7
:1001640000140048F0B544465F4656464D46F0B488
:1001740003248C4683B00968002200230127A0468B
:1001840003E001330232102B27D03C009C402500B1
:100194000D40AC42F5D165462D796E1EAB46012E5D
:1001A40022D946469640F44301945D46954004683E
:1001B400019E0133264006600468254305604546D8
:1001C4009540C468AC43C4606446E479C56894400F
:1001D4002C43C4600232102BD7D103B03CBC9046F0
:1001E4009946A246AB46F0BD46469640F64385681E
:1001F4000196354085608568AA4665466D799540C7
:10020400A94655464E46354385608588A543858075
:100214006546AD7984889D402C43A4B28480C4E7AC
:10022400044B022203600023427103718371C37182
:100234007047C046FFFF0000802382B05B02019339
:10024400019B0B430193019BC361C161019BC3618A
:10025400C3690193C369019302B07047038A1940CB
:100264000800411E8841C0B27047C046008A80B26F
:100274007047C046838A19400800411E8841C0B2B5
:100284007047C046808A80B27047C046816170471B
:1002940001857047002A01D1018570478161FCE71F
:1002A40081827047072310B50F240B409B009C40AC
:1002B4009A40C90889004018016AA1430162016A91
:1002C4000A43026210BDC046837870B5002B08D182
:1002D4001F22037812491A400123934080228B5035
:1002E40070BD0F4B01789C4603238C081940FC33E6
:1002F4001A00C026C9008A40A4006444B600A55967
:1003040095434278920113408B401F222B43A35103
:1003140003781A400123934062461360E0E7C04625
:1003240000E100E0044A1369002902D18343136108
:10033400704718431061FBE700ED00E0042805D086
:100344000421054A13688B4313607047024B1A68F3
:1003540010431860F9E7C04610E000E00121114B9A
:100364001A680A431A6058680F4A02405A601868AB
:100374000E4A02401A6018680D4A02401A60586812
:100384000C4A02400F205A60DA6A8243DA62186B20
:10039400094A02401A635A6B8A435A6300229A60DC
:1003A4007047C046001002400CB8FFF8FFFFF6FE8D
:1003B400FFFFFBFFFFFFC0FFACFEFFFF0022024B6D
:1003C4001A7018707047C046021002400023802241
:1003D400A02082B001930B499202C00005E0019B6A
:1003E40001330193019B834206D00B681342F6D07C
:1003F400019B01330193019B024B18688003C00FDA
:1004040002B0704700100240F821034AC00013688C
:100414008B4318431060704700100240064A0028BE
:1004240004D1012113688B431360704701231168C1
:100434000B431360F9E7C04600100240F821034A59
:10044400C000536B8B431843506370470010024045
:10045400064A002804D10121536B8B435363704730
:100464000123516B0B435363F9E7C046001002406C
:10047400064A002804D10423516B0B43536370478D
:100484000421536B8B435363F9E7C04600100240C9
:100494000121064B1A6A8A431A621A6A03318A4393
:1004A4001A621A6A104318627047C046001002406C
:1004B4001821044B1A6A8A431A621A6A1043186292
:1004C4007047C04600100240064A002804D10121AA
:1004D400536A8B43536270470123516A0B4353623F
:1004E400F9E7C04600100240054B10B5054A5C68A8
:1004F40022405A605A6811430843586010BDC046F0
:1005040000100240FFFFC2FF064A002804D1116810
:10051400054B0B40136070478021136849040B435B
:100524001360F8E700100240FFFFFFFE0F21034AAB
:10053400D36A8B431843D0627047C0460010024010
:10054400064A002804D11168054B0B40136070471C
:100554008021136809030B431360F8E7001002407D
:10056400FFFFF7FF014B18707047C04607100240A9
:100574000321034A53688B43184350607047C046B5
:10058400001002400C20024B5B6818407047C046C4
:1005940000100240F021034A53688B431843506013
:1005A4007047C04600100240034A044B51680B4098
:1005B400184350607047C04600100240FFF8FFFF28
:1005C400094B0A4A59680A405A6059680204120CD5
:1005D4000A435A60196B064A000C0A401A631A6BE4
:1005E400104318637047C04600100240FFBFFFFF6E
:1005F400FFFEFFFF4021044B1A6B8A431A631A6BF8
:10060400104318637047C046001002401021044B89
:100614001A6B8A431A631A6B104318637047C046F7
:10062400001002400321044B1A6B8A431A631A6BAD
:10063400104318637047C046001002400C213B4A27
:1006440070B5536804000B40042B01D0082B51D023
:10065400374820600200354D36496B681B061B0F76
:10066400CB5CDA4062606B685B055B0FCB5CDA40A5
:10067400A2602B6B1100DB0521D42F4BE3602B4BC5
:100684001B6B5B0624D42D4B2361284B1B6BDB06B1
:1006940025D4274B254A63610323156B2B4224D0B1
:1006A400116B194001293AD0116B1940022938D035
:1006B400126B1340032B01D11D4BA36170BD6B68FA
:1006C4005B0414D45308E360184B1B6B5B06DAD548
:1006D40080231B022361154B1B6BDB06D9D5032337
:1006E400124A6061156B2B42DAD1A161E6E79308E7
:1006F400E360C4E70F2150685368800C0840851CF0
:10070400DB0303D40E4868432060A3E7D36A084898
:100714001940013100F0CAFE684320609AE7A061E5
:10072400CCE780231B02A361C8E7C0460010024047
:1007340000127A0000000020809FD5001280000083
:1007440000093D00024B1A6A104318627047C04604
:1007540000100240064A002804D1116A054B0B40E0
:10076400136270478021136A09020B431362F8E78E
:1007740000100240FF7FFFFF064A002804D1116ADF
:10078400054B0B40136270478021136A49020B43E7
:100794001362F8E700100240FFFFFEFF002904D1B6
:1007A400044A5369834353617047024B5A691043A7
:1007B4005861F9E700100240002904D1044A936902
:1007C400834393617047024B9A6910439861F9E738
:1007D40000100240002904D1044AD3698343D36141
:1007E4007047024BDA691043D861F9E70010024000
:1007F400002904D1044A936A834393627047024BED
:100804009A6A10439862F9E700100240002904D163
:10081400044AD3688343D3607047024BDA681043B9
:10082400D860F9E700100240002904D1044A136992
:10083400834313617047024B1A6910431861F9E747
:1008440000100240002904D1044A13788343137032
:100854007047024B1A7810431870F9E709100240E8
:100864000300420907D10A4A10681F221340D840E6
:10087400012318407047012A04D0022A05D0044AF3
:10088400506BF2E7024A106AEFE7014A506AECE75C
:10089400001002408021034A4904536A0B43536207
:1008A4007047C04600100240034B9B681840431E2B
:1008B4009841C0B27047C04600100240014B187006
:1008C4007047C0460A100240364B10B5984221D0FA
:1008D4008023DB05984228D0334B98422ED0334BEB
:1008E400984234D0324B98423AD0324B984242D05C
:1008F400314B98424AD0314B984200D010BD8020F1
:100904000121C002FFF782FF80200021C002FFF70F
:100914007DFFF3E7802001210001FFF777FF8020AE
:1009240000210001FFF772FFE8E701210120FFF732
:100934007BFF00210120FFF777FFDFE70121022081
:10094400FFF772FF00210220FFF76EFFD6E70121B7
:100954001020FFF769FF00211020FFF765FFCDE7A6
:10096400802001214000FFF75FFF8020002140002C
:10097400FFF75AFFC2E7802001214002FFF746FF3C
:10098400802000214002FFF741FFB7E780200121CA
:100994008002FFF73BFF802000218002FFF736FF33
:1009A400ACE7C046002C01400004004000100040A9
:1009B4000020004000400140004401400048014044
:1009C40003881F4A9BB290422BD08022D2059042CA
:1009D4001CD01C4A904219D01B4A90421BD01B4A7F
:1009E40013400A89134303804B68C3620B88038551
:1009F400174B984205D0174B984202D0164B984299
:100A040001D18B7A0386012383827047702293433A
:100A14004A881343E3E703804B68C3620B8803856A
:100A2400F1E7702293434A881343084A13400A8922
:100A3400134303804B68C3620B880385E1E7C04618
:100A4400002C01400004004000100040FFFCFFFFA8
:100A540000400140004401400048014001235B4242
:100A64004360002303800381438083727047C04640
:100A7400018582827047C0467022038893431943DC
:100A84000180704741627047C1627047406A704795
:100A9400008D80B27047C046002904D10222038829
:100AA4009343038070470223028813430380F9E7CA
:100AB400002904D10422038893430380704704234C
:100AC400028813430380F9E7002904D180220388B4
:100AD4009343038070478023028813430380F9E71C
:100AE40008220388934303800388194301807047D5
:100AF4000288034B13400380038819430180704725
:100B0400FFFCFFFF002904D10122038893430380E3
:100B140070470123028813430380F9E70A884B884E
:100B240013438A881343CA8813430A8913434A899F
:100B340013438A891343442283527047002303805A
:100B440043808380C3800381438183817047C0468F
:100B54004422002904D1835A5B045B0C83527047FE
:100B64008023815A1B020B438352F8E70122038C32
:100B740070B593430384038C8488058B7232954348
:100B84000A88A4B21543022293431E004A888B8923
:100B94001343114A334390420ED0104A90420BD073
:100BA4000F4A904208D00F4A904205D08A68848048
:100BB40005834263038470BD08229343CA890E8A65
:100BC4001343042293438A881343074A14404A8AEE
:100BD40032431443EAE7C046002C01400040014080
:100BE4000044014000480140FFFCFFFF1022038C39
:100BF40070B593430384028C184B8588048B0E884C
:100C04001C4020239A438B8936021B011A434B88CC
:100C140092B21B011A4393B2114A3443ADB2A4B247
:100C2400904205D08A68858004838263038470BD02
:100C340080229343CA89120113430A4A13408A88C3
:100C440012011343084A9BB215400A8A92001543C5
:100C5400AAB24D8AAD002A4395B2E3E7FF8CFFFFA9
:100C6400002C0140BFFF0000FFF3FFFF028C1A4B72
:100C740070B5134003847323028C8588868B8C891A
:100C84009E430B8824021E43144BADB21A404B887A
:100C940022431B0292B21A4393B2114A904205D0E6
:100CA4008A6885808683C263038470BD0D4A1340BD
:100CB400CA89120213430C4A13408A88120213434E
:100CC4000A4A9BB215400A8A12011543AAB24D8AF8
:100CD4002D012A4395B2E3E7FFFEFFFFFFFDFFFF6F
:100CE400002C0140FFF7FFFFFFFB0000FFCFFFFFD9
:100CF400028C144B70B513400384048C124A86880A
:100D04000D88838B2D021A402A43104B8D89234072
:100D14002D032B439CB24B88B6B21B0323430C4CCC
:100D240092B29BB2A04205D0868082838A68026414
:100D3400038470BD074C26400C8AA4012643B6B236
:100D4400F2E7C046FFEFFFFFFF8CFFFFFFDFFFFF6F
:100D5400002C0140FFBFFFFF0023038043808380FA
:100D640083608381C38103824382704730B5012548
:100D74008D40038C0400AB4303840823080018341B
:100D840098430DD0081F83B25B081B1918680949E2
:100D9400120201401960196892B20A431A6030BD08
:100DA4007020490809190B6883430B600B681A43C8
:100DB4000A60F4E7FF8FFFFF416370478163704768
:100DC400C1637047016470477022038B93431943D6
:100DD40001837047028B034B09021340194389B204
:100DE40001837047FF8FFFFF7022838B9343194366
:100DF40081837047828B034B09021340194389B2E4
:100E040081837047FF8FFFFF002904D1012283886B
:100E14009343838070470123828813438380F9E7D7
:100E24000822038B9343194301837047028B034BBE
:100E340009021340194389B201837047FFF7FFFF8A
:100E44000822838B9343194381837047828B034B1E
:100E540009021340194389B281837047FFF7FFFFEA
:100E64000422038B9343194301837047028B034B82
:100E740009021340194389B201837047FFFBFFFF46
:100E84000422838B9343194381837047828B034BE2
:100E940009021340194389B281837047FFFBFFFFA6
:100EA4008022038B9343194301837047038B090208
:100EB4005B045B0C194389B2018370478022838BE6
:100EC4009343194381837047838B09025B045B0C52
:100ED400194389B2818370470222038C93431943D7
:100EE400018470470822038C93431943018470479B
:100EF4002022038C09019343194389B2018470476A
:100F04008022038C09019343194389B201847047F9
:100F1400028C034B09021340194389B201847047C0
:100F2400FFFDFFFF028C034B09021340194389B2F2
:100F340001847047FFF7FFFF028C034B0903134042
:100F4400194389B201847047FFDFFFFF0822038938
:100F540093430381038919430181704710B5012428
:100F64008C408A40038CA3430384038C1A4392B2BB
:100F7400028410BD10B504248C408A40038CA34322
:100F84000384038C1A4392B2028410BD002904D155
:100F94000422838893438380704704238288134305
:100FA4008380F9E70B88F0B5002B2AD0042B49D0B5
:100FB400082B00D16CE0048C474B0A8923404F88EE
:100FC4008E880384858B454C36022C403443038C35
:100FD400A5B21403424A2C43134080223D032B4301
:100FE40052019BB21343A4B284830384CB883D4A49
:100FF400818B1B020A408283828B13439BB28383BF
:10100400F0BD048C01339C434E888F880A89048484
:10101400F324038B1201A3431A4393B20A22058CCF
:101024000124954332003B4303830C2322432A4388
:1010340092B20284028BC9889A430283038B0B43C6
:101044000383DDE71024038C8A88A3434F880E8929
:101054000384058B214B36032B4033439DB213028B
:10106400A022048C2B439443220010243D012A43E4
:1010740092B29BB2224303830284CB88194A018B28
:101084001B020A400283028B13439BB20383B7E71C
:10109400F327028C144B0D8913404E888C880384EB
:1010A400828B038CBA4317002A013A4392B2144349
:1010B4000E4A3502134080222B4352009BB2134345
:1010C400848303840C23828BC9889A438283838B11
:1010D4000B43838394E7C046FFEFFFFFFF0C000040
:1010E400FF5F0000FFF3FFFFFFFEFFFFFFF5FFFFC1
:1010F40000230122038043808280C38003817047E0
:10110400F0B557464E464546E0B44E888C88724248
:101114007241631E5F427B410F88013382B05500E8
:101124009946002F50D01023078C0A899F430784C7
:10113400038B24029846038C9A46454B9C464346AF
:1011440067463B409C4613039846634647463B43E9
:101154006F46FB80FB8857461C433301A026B743E8
:101164003E0010271E43B6B23E43A4B20483068455
:10117400068BCC8837494B4631400183068B2102CC
:101184003143012689B20183018CE337B1430184E1
:10119400018B1201B9430A4313430A22068C01212D
:1011A400964332000A4315430C229BB20383058401
:1011B400038B93430383038B1C43048302B01CBC43
:1011C40090469946A246F0BD0123078C0D899F43A2
:1011D4000784078B038C52019C46F3239F43B84634
:1011E40043462F011F43BFB23C4363460A27BB4318
:1011F40001273E431E43B6B2048306840C264B46A5
:10120400048BC988B4430483048B04360C430483DD
:10121400048C2D03B4430484078B0D4E1B023E4003
:101224003543ADB21D43A023048CADB29C432300CF
:10123400102423431A4305830284028B054B0902BD
:1012440013400383038B194389B20183B6E7C04675
:10125400FF0C0000FFF3FFFF406B7047806B70478B
:10126400C06B7047006C70470C22038B934303835D
:10127400038B194301837047028B044B090213400B
:101284000383038B194389B201837047FFF3FFFF84
:101294000C22838B93438383838B1943818370470D
:1012A400828B044B090213408383838B194389B2D5
:1012B40081837047FFF3FFFF81827047038A1940DF
:1012C4000800411E8841C0B27047C046C94389B274
:1012D40001827047028A808983B20020114203D0C0
:1012E4001940481E8141C8B27047C046C94389B2FB
:1012F4000182704748230A43C25270478389002AF7
:1013040002D18B438381704719438181FBE7C04637
:1013140010B5FFF7F3FF10BD002904D1082283881C
:101324009343838070470823828813438380F9E7BB
:1013340007220389934303817047C04670220389BF
:10134400934319430723018102891343038170479F
:1013540070B5048C60291DD00125AC430484068B30
:10136400F235AE4301252E43B6B21B0133430A26A0
:10137400048C9BB2B4432C43A4B22243038302845F
:10138400702203899343194307230181028913437C
:10139400038170BD1025AC430484068B094C1B03E8
:1013A40034408026760034432343A024058C120164
:1013B400A5432C0010252C4322439BB292B20383F5
:1013C4000284DDE7FF0C00001B021A43FF2310B563
:1013D40004891C40224392B211437722018103897C
:1013E40093431343038110BD1B021A43FF2310B51B
:1013F40004891C40224392B2114380220181038953
:10140400D2011343038110BD70220389934319430E
:1014140001817047702283889343838083881943B2
:101424008180704707220389934303810389194309
:1014340001817047802203899343038103891943FF
:101444000181704730B5FF2504891B022C402143DC
:101454000A431A4392B2028130BDC046F0B5072454
:101464000689078BA64331430226074C058C3C4072
:10147400FF363443573EB5432A431B011A4392B205
:10148400018104830284F0BDFCFCFFFF002904D128
:101494008022838893438380704780238288134308
:1014A4008380F9E75023C1527047C04600224308A5
:1014B4008B4274D303098B425FD3030A8B4244D318
:1014C400030B8B4228D3030C8B420DD3FF2209025A
:1014D40012BA030C8B4202D31212090265D0030B19
:1014E4008B4219D300E0090AC30B8B4201D3CB030F
:1014F400C01A5241830B8B4201D38B03C01A524151
:10150400430B8B4201D34B03C01A5241030B8B4252
:1015140001D30B03C01A5241C30A8B4201D3CB023D
:10152400C01A5241830A8B4201D38B02C01A524122
:10153400430A8B4201D34B02C01A5241030A8B4225
:1015440001D30B02C01A5241CDD2C3098B4201D33D
:10155400CB01C01A524183098B4201D38B01C01ABB
:10156400524143098B4201D34B01C01A5241030932
:101574008B4201D30B01C01A5241C3088B4201D3E1
:10158400CB00C01A524183088B4201D38B00C01A8E
:10159400524143088B4201D34B00C01A5241411AB5
:1015A40000D20146524110467047FFE701B50020C2
:1015B40000F006F802BDC0460029F7D076E7704770
:1015C4007047C04670B50D4E0D4D0024AD1BAD10D7
:1015D40005D0A300F35801349847A542F9D100F08F
:1015E40055FB084E084D0024AD1BAD1005D0A300DB
:1015F400F35801349847A542F9D170BD00000000AA
:101604000000000000000000000000008020F0B591
:10161400012187B00001FFF7CFF88020012180026B
:10162400FFF7BCF880239025002402269B00019339
:10163400ED05FE3B01A9FF3B28004B710E718C7137
:10164400CC71FEF78FFD320028000921FEF72AFE37
:1016540004270A23202203A90F4D013E0F808E8008
:10166400CC804B802B8D280013432B850C81FFF7F6
:1016740099FC31002800FFF745FA320039002800B0
:10168400FFF746FE6A460E23684613705470967040
:10169400FEF71AFE07B0F0BD002C014080212B4B51
:1016A400C9025A6901200A43802130B55A615A6936
:1016B40089020A435A61DA6908210243DA619022F5
:1016C4008024D2051368A4030B431360204B6025C8
:1016D40019682143802419601968240421432024B3
:1016E4001960116A2143116280215A6A89000A43F0
:1016F40080215A625A6A89010A435A628023154A30
:10170400DB05DA62C022998BD201294399839C8B31
:1017140014439C83198B114319839A8B80212A4388
:101724009A8300229A63DA631A641A8C49000A4382
:1017340080211A841A8C4901114310221984198CAE
:10174400114319841A8802431A8030BD00100240E4
:101754000004004800A60E00802102201C4BC90290
:101764005A690A435A61D9690143D9610821194B5D
:101774001A6802431A601A680E300A431A601A6A19
:1017840007390A431A621A6A02431A62124B13484F
:101794001A8D02431A85F02260209200DA629A8B35
:1017A4000243C0209A839A8BC00102439A83002289
:1017B4008020D9631A641A8C4000024380201A8462
:1017C4001A8C400102431A841A880A431A8070470B
:1017D4000010024000040048000400408813000088
:1017E4008021144A890253690B43536190230321D6
:1017F400DB051A688A431A601A6809318A431A6039
:101804001A6824318A431A601A6890318A431A602C
:10181400DA68BF390A43DA60DA6803310A43DA6006
:10182400DA680C310A43DA60DA6830310A43DA6084
:101834007047C04600100240002382B00093009A13
:1018440082420BD20193019A904203D9019A013248
:101854000192F8E7009A01320092F0E702B0704773
:1018640010B5012000F084F9064800F075F9064827
:1018740000F072F9C02000F07BF9044800F06CF924
:1018840010BDC046761C0008811C0008851C000899
:1018940010B5FFF7A5FF00F075F9FFF7B7FEFFF7E6
:1018A400FDFEFFF759FFFFF7DBFFFA20034B400073
:1018B4001A68034B1A60FFF7BFFFF4E71800002013
:1018C4001C00002070B504211C48FFF703FD061E10
:1018D400012E32D104211948FFF708FD184D2B8839
:1018E4002C00002B06D11548FFF7B8FC154B2E80B1
:1018F400188022E0012B20D11048FFF7AFFC124BD7
:1019040081B219800F4B1A88104B914201D9881A61
:1019140005E0914205D20E4980B28A1A1018186067
:1019240001E000221A60AE21186809014001FFF7A6
:10193400BDFD084B18600023238070BD002C0140BE
:1019440010000020220000202000002014000020AD
:10195400FFFF00001800002013B501200F24254BC1
:101964001A6802431A605968234A0A405A6019687F
:10197400224A0A401A601968214A0A401A605968C2
:10198400204A11405960D96AA143D9621C6B1E498F
:1019940021401963596B8143596300219960009177
:1019A40001911A49103008605968596059685960A2
:1019B40059680A40A0215A605A6889030A43802161
:1019C4005A601A6849040A4380211A608904186815
:1019D400084A0842FBD00320516881435160516892
:1019E4000138014351600C215A680A40082AFBD18E
:1019F40013BDC046001002400CB8FFF8FFFFF6FE0E
:101A0400FFFFFBFFFFFFC0FFACFEFFFF0020024013
:101A1400002382B0019303335843019B984205D9B4
:101A2400C046C046019B01330193F6E702B07047FC
:101A340010B51420FFF7ECFF8022084C1206A369AE
:101A440014201343A361FFF7E3FF8022A36912026A
:101A54001343A3611420FFF7DBFF10BD0008004807
:101A640070B50500012904D18021394AC90193695F
:101A740005E0002905D18021354AC90593690B4346
:101A8400936190236AB2DB05002A03DA80219A6904
:101A9400090202E080219A6909060A439A619023A7
:101AA400DB056A0603D580219A69490102E0802199
:101AB4009A6949050A439A61264CAB0603D58022EC
:101AC400A369920002E08022A36992041343A361F4
:101AD400EB0603D58022A369520002E08022A369A9
:101AE40052041343A361FFF7A3FF9023DB052A07E6
:101AF40003D580219A69090202E080219A690906C6
:101B04000A439A619023DB056A0703D580219A6909
:101B1400490102E080219A6949050A439A61AB07A9
:101B240003D58022A369920002E08022A369920473
:101B34001343A361EB0703D58022A369520002E09B
:101B44008022A36952041343A361FFF771FF70BDA0
:101B5400000800480004004810B504000134631E66
:101B64001878002803D00121FFF77AFFF6E710BDAB
:101B740010B50021FFF774FF0148FFF749FF10BDBE
:101B8400B80B000010B52248FFF742FF8021214B1B
:101B940080245A6909030A4380215A615A69E4027C
:101BA40022435A615A6989020A43802180205A617A
:101BB400194B49051A68C0050A4380211A601A683E
:101BC400490202431A60154B1A680A431A601968DD
:101BD4008022214319609023DB05196852041143C4
:101BE40019601A6802431A603320FFF7C1FF3320DB
:101BF400FFF7BEFF3220FFF7BBFF0C20FFF7B8FF53
:101C04002820FFF7B5FF0120FFF7B2FF10BDC04643
:101C1400307500000010024000080048000400482D
:101C24000D488546002103E00C4B5B5843500431BA
:101C34000B480C4B42189A42F6D30B4A02E000239D
:101C440013600432094B9A42F9D3FFF785FEFFF77C
:101C5400B9FCFFF71DFEFEE700200020A81C0008C9
:101C640000000020100000201000002024000020AC
:101C7400FEE744697374616E63653A200020636D06
:101C84000053706565643A2000256400F8B5C046C9
:101C9400F8BC08BC9E467047F8B5C046F8BC08BC02
:041CA4009E467047A1
:101CA80000000000010203040102030406070809FA
:0400000508001C25AE
:00000001FF
